{
  "_format": "hh-sol-artifact-1",
  "contractName": "NFT",
  "sourceName": "contracts/NFT.sol",
  "abi": [
    {
      "inputs": [
        {
          "internalType": "string",
          "name": "name_",
          "type": "string"
        },
        {
          "internalType": "string",
          "name": "symbol_",
          "type": "string"
        },
        {
          "internalType": "address",
          "name": "_layerZeroEndpoint",
          "type": "address"
        },
        {
          "internalType": "address",
          "name": "marketPlaceAddress",
          "type": "address"
        }
      ],
      "stateMutability": "nonpayable",
      "type": "constructor"
    },
    {
      "anonymous": false,
      "inputs": [
        {
          "indexed": true,
          "internalType": "address",
          "name": "owner",
          "type": "address"
        },
        {
          "indexed": true,
          "internalType": "address",
          "name": "approved",
          "type": "address"
        },
        {
          "indexed": true,
          "internalType": "uint256",
          "name": "tokenId",
          "type": "uint256"
        }
      ],
      "name": "Approval",
      "type": "event"
    },
    {
      "anonymous": false,
      "inputs": [
        {
          "indexed": true,
          "internalType": "address",
          "name": "owner",
          "type": "address"
        },
        {
          "indexed": true,
          "internalType": "address",
          "name": "operator",
          "type": "address"
        },
        {
          "indexed": false,
          "internalType": "bool",
          "name": "approved",
          "type": "bool"
        }
      ],
      "name": "ApprovalForAll",
      "type": "event"
    },
    {
      "anonymous": false,
      "inputs": [
        {
          "indexed": true,
          "internalType": "address",
          "name": "previousOwner",
          "type": "address"
        },
        {
          "indexed": true,
          "internalType": "address",
          "name": "newOwner",
          "type": "address"
        }
      ],
      "name": "OwnershipTransferred",
      "type": "event"
    },
    {
      "anonymous": false,
      "inputs": [
        {
          "indexed": true,
          "internalType": "address",
          "name": "from",
          "type": "address"
        },
        {
          "indexed": true,
          "internalType": "address",
          "name": "to",
          "type": "address"
        },
        {
          "indexed": true,
          "internalType": "uint256",
          "name": "tokenId",
          "type": "uint256"
        }
      ],
      "name": "Transfer",
      "type": "event"
    },
    {
      "inputs": [
        {
          "internalType": "address",
          "name": "to",
          "type": "address"
        },
        {
          "internalType": "uint256",
          "name": "tokenId",
          "type": "uint256"
        }
      ],
      "name": "approve",
      "outputs": [],
      "stateMutability": "nonpayable",
      "type": "function"
    },
    {
      "inputs": [
        {
          "internalType": "address",
          "name": "owner",
          "type": "address"
        }
      ],
      "name": "balanceOf",
      "outputs": [
        {
          "internalType": "uint256",
          "name": "",
          "type": "uint256"
        }
      ],
      "stateMutability": "view",
      "type": "function"
    },
    {
      "inputs": [
        {
          "internalType": "string",
          "name": "tokenURI",
          "type": "string"
        }
      ],
      "name": "createToken",
      "outputs": [
        {
          "internalType": "uint256",
          "name": "",
          "type": "uint256"
        }
      ],
      "stateMutability": "nonpayable",
      "type": "function"
    },
    {
      "inputs": [],
      "name": "endpoint",
      "outputs": [
        {
          "internalType": "contract ILayerZeroEndpoint",
          "name": "",
          "type": "address"
        }
      ],
      "stateMutability": "view",
      "type": "function"
    },
    {
      "inputs": [
        {
          "internalType": "uint256",
          "name": "tokenId",
          "type": "uint256"
        }
      ],
      "name": "getApproved",
      "outputs": [
        {
          "internalType": "address",
          "name": "",
          "type": "address"
        }
      ],
      "stateMutability": "view",
      "type": "function"
    },
    {
      "inputs": [
        {
          "internalType": "uint256",
          "name": "_tokenId",
          "type": "uint256"
        }
      ],
      "name": "getLocked",
      "outputs": [
        {
          "internalType": "bool",
          "name": "",
          "type": "bool"
        }
      ],
      "stateMutability": "nonpayable",
      "type": "function"
    },
    {
      "inputs": [
        {
          "internalType": "address",
          "name": "owner",
          "type": "address"
        },
        {
          "internalType": "address",
          "name": "operator",
          "type": "address"
        }
      ],
      "name": "isApprovedForAll",
      "outputs": [
        {
          "internalType": "bool",
          "name": "",
          "type": "bool"
        }
      ],
      "stateMutability": "view",
      "type": "function"
    },
    {
      "inputs": [
        {
          "internalType": "uint256",
          "name": "",
          "type": "uint256"
        }
      ],
      "name": "isTokenIdLocked",
      "outputs": [
        {
          "internalType": "bool",
          "name": "",
          "type": "bool"
        }
      ],
      "stateMutability": "view",
      "type": "function"
    },
    {
      "inputs": [
        {
          "internalType": "uint16",
          "name": "_srcChainId",
          "type": "uint16"
        },
        {
          "internalType": "bytes",
          "name": "_srcAddress",
          "type": "bytes"
        },
        {
          "internalType": "uint64",
          "name": "",
          "type": "uint64"
        },
        {
          "internalType": "bytes",
          "name": "_payload",
          "type": "bytes"
        }
      ],
      "name": "lzReceive",
      "outputs": [],
      "stateMutability": "nonpayable",
      "type": "function"
    },
    {
      "inputs": [],
      "name": "name",
      "outputs": [
        {
          "internalType": "string",
          "name": "",
          "type": "string"
        }
      ],
      "stateMutability": "view",
      "type": "function"
    },
    {
      "inputs": [],
      "name": "owner",
      "outputs": [
        {
          "internalType": "address",
          "name": "",
          "type": "address"
        }
      ],
      "stateMutability": "view",
      "type": "function"
    },
    {
      "inputs": [
        {
          "internalType": "uint256",
          "name": "tokenId",
          "type": "uint256"
        }
      ],
      "name": "ownerOf",
      "outputs": [
        {
          "internalType": "address",
          "name": "",
          "type": "address"
        }
      ],
      "stateMutability": "view",
      "type": "function"
    },
    {
      "inputs": [
        {
          "internalType": "uint16",
          "name": "",
          "type": "uint16"
        }
      ],
      "name": "remotes",
      "outputs": [
        {
          "internalType": "bytes",
          "name": "",
          "type": "bytes"
        }
      ],
      "stateMutability": "view",
      "type": "function"
    },
    {
      "inputs": [],
      "name": "renounceOwnership",
      "outputs": [],
      "stateMutability": "nonpayable",
      "type": "function"
    },
    {
      "inputs": [
        {
          "internalType": "address",
          "name": "from",
          "type": "address"
        },
        {
          "internalType": "address",
          "name": "to",
          "type": "address"
        },
        {
          "internalType": "uint256",
          "name": "tokenId",
          "type": "uint256"
        }
      ],
      "name": "safeTransferFrom",
      "outputs": [],
      "stateMutability": "nonpayable",
      "type": "function"
    },
    {
      "inputs": [
        {
          "internalType": "address",
          "name": "from",
          "type": "address"
        },
        {
          "internalType": "address",
          "name": "to",
          "type": "address"
        },
        {
          "internalType": "uint256",
          "name": "tokenId",
          "type": "uint256"
        },
        {
          "internalType": "bytes",
          "name": "_data",
          "type": "bytes"
        }
      ],
      "name": "safeTransferFrom",
      "outputs": [],
      "stateMutability": "nonpayable",
      "type": "function"
    },
    {
      "inputs": [
        {
          "internalType": "uint16",
          "name": "_chainId",
          "type": "uint16"
        },
        {
          "internalType": "bytes",
          "name": "_dstOmniChainTokenAddr",
          "type": "bytes"
        },
        {
          "internalType": "uint256",
          "name": "_tokenId",
          "type": "uint256"
        }
      ],
      "name": "sendTokens",
      "outputs": [],
      "stateMutability": "payable",
      "type": "function"
    },
    {
      "inputs": [
        {
          "internalType": "address",
          "name": "operator",
          "type": "address"
        },
        {
          "internalType": "bool",
          "name": "approved",
          "type": "bool"
        }
      ],
      "name": "setApprovalForAll",
      "outputs": [],
      "stateMutability": "nonpayable",
      "type": "function"
    },
    {
      "inputs": [
        {
          "internalType": "uint256",
          "name": "_tokenId",
          "type": "uint256"
        },
        {
          "internalType": "bool",
          "name": "_locked",
          "type": "bool"
        }
      ],
      "name": "setLocked",
      "outputs": [],
      "stateMutability": "nonpayable",
      "type": "function"
    },
    {
      "inputs": [
        {
          "internalType": "uint16",
          "name": "_chainId",
          "type": "uint16"
        },
        {
          "internalType": "bytes",
          "name": "_remoteAddress",
          "type": "bytes"
        }
      ],
      "name": "setRemote",
      "outputs": [],
      "stateMutability": "nonpayable",
      "type": "function"
    },
    {
      "inputs": [
        {
          "internalType": "bytes4",
          "name": "interfaceId",
          "type": "bytes4"
        }
      ],
      "name": "supportsInterface",
      "outputs": [
        {
          "internalType": "bool",
          "name": "",
          "type": "bool"
        }
      ],
      "stateMutability": "view",
      "type": "function"
    },
    {
      "inputs": [],
      "name": "symbol",
      "outputs": [
        {
          "internalType": "string",
          "name": "",
          "type": "string"
        }
      ],
      "stateMutability": "view",
      "type": "function"
    },
    {
      "inputs": [
        {
          "internalType": "uint256",
          "name": "",
          "type": "uint256"
        }
      ],
      "name": "tokenExists",
      "outputs": [
        {
          "internalType": "bool",
          "name": "",
          "type": "bool"
        }
      ],
      "stateMutability": "view",
      "type": "function"
    },
    {
      "inputs": [
        {
          "internalType": "uint256",
          "name": "tokenId",
          "type": "uint256"
        }
      ],
      "name": "tokenURI",
      "outputs": [
        {
          "internalType": "string",
          "name": "",
          "type": "string"
        }
      ],
      "stateMutability": "view",
      "type": "function"
    },
    {
      "inputs": [
        {
          "internalType": "address",
          "name": "from",
          "type": "address"
        },
        {
          "internalType": "address",
          "name": "to",
          "type": "address"
        },
        {
          "internalType": "uint256",
          "name": "tokenId",
          "type": "uint256"
        }
      ],
      "name": "transferFrom",
      "outputs": [],
      "stateMutability": "nonpayable",
      "type": "function"
    },
    {
      "inputs": [
        {
          "internalType": "address",
          "name": "newOwner",
          "type": "address"
        }
      ],
      "name": "transferOwnership",
      "outputs": [],
      "stateMutability": "nonpayable",
      "type": "function"
    }
  ],
  "bytecode": "0x60806040523480156200001157600080fd5b50604051620043923803806200439283398181016040528101906200003791906200038a565b6040518060400160405280600681526020017f436f6e63657000000000000000000000000000000000000000000000000000008152506040518060400160405280600481526020017f43415354000000000000000000000000000000000000000000000000000000008152508160009080519060200190620000bb92919062000251565b508060019080519060200190620000d492919062000251565b505050620000f7620000eb6200018360201b60201c565b6200018b60201b60201c565b81600860006101000a81548173ffffffffffffffffffffffffffffffffffffffff021916908373ffffffffffffffffffffffffffffffffffffffff16021790555080600b60006101000a81548173ffffffffffffffffffffffffffffffffffffffff021916908373ffffffffffffffffffffffffffffffffffffffff16021790555050505050620005e6565b600033905090565b6000600760009054906101000a900473ffffffffffffffffffffffffffffffffffffffff16905081600760006101000a81548173ffffffffffffffffffffffffffffffffffffffff021916908373ffffffffffffffffffffffffffffffffffffffff1602179055508173ffffffffffffffffffffffffffffffffffffffff168173ffffffffffffffffffffffffffffffffffffffff167f8be0079c531659141344cd1fd0a4f28419497f9722a3daafe3b4186f6b6457e060405160405180910390a35050565b8280546200025f90620004f1565b90600052602060002090601f016020900481019282620002835760008555620002cf565b82601f106200029e57805160ff1916838001178555620002cf565b82800160010185558215620002cf579182015b82811115620002ce578251825591602001919060010190620002b1565b5b509050620002de9190620002e2565b5090565b5b80821115620002fd576000816000905550600101620002e3565b5090565b600062000318620003128462000451565b62000428565b9050828152602081018484840111156200033157600080fd5b6200033e848285620004bb565b509392505050565b6000815190506200035781620005cc565b92915050565b600082601f8301126200036f57600080fd5b81516200038184826020860162000301565b91505092915050565b60008060008060808587031215620003a157600080fd5b600085015167ffffffffffffffff811115620003bc57600080fd5b620003ca878288016200035d565b945050602085015167ffffffffffffffff811115620003e857600080fd5b620003f6878288016200035d565b9350506040620004098782880162000346565b92505060606200041c8782880162000346565b91505092959194509250565b60006200043462000447565b905062000442828262000527565b919050565b6000604051905090565b600067ffffffffffffffff8211156200046f576200046e6200058c565b5b6200047a82620005bb565b9050602081019050919050565b600062000494826200049b565b9050919050565b600073ffffffffffffffffffffffffffffffffffffffff82169050919050565b60005b83811015620004db578082015181840152602081019050620004be565b83811115620004eb576000848401525b50505050565b600060028204905060018216806200050a57607f821691505b602082108114156200052157620005206200055d565b5b50919050565b6200053282620005bb565b810181811067ffffffffffffffff821117156200055457620005536200058c565b5b80604052505050565b7f4e487b7100000000000000000000000000000000000000000000000000000000600052602260045260246000fd5b7f4e487b7100000000000000000000000000000000000000000000000000000000600052604160045260246000fd5b6000601f19601f8301169050919050565b620005d78162000487565b8114620005e357600080fd5b50565b613d9c80620005f66000396000f3fe60806040526004361061017f5760003560e01c806345576f94116100d157806395d89b411161008a578063b88d4fde11610064578063b88d4fde146105a7578063c87b56dd146105d0578063e985e9c51461060d578063f2fde38b1461064a5761017f565b806395d89b41146105165780639d1f611314610541578063a22cb4651461057e5761017f565b806345576f94146103f25780635e280f111461042f5780636352211e1461045a57806370a0823114610497578063715018a6146104d45780638da5cb5b146104eb5761017f565b8063095ea7b31161013e57806323b872dd1161011857806323b872dd1461034757806336da46c9146103705780633b035df61461038c57806342842e0e146103c95761017f565b8063095ea7b3146102cc5780630a3cc989146102f557806320cdd0a11461031e5761017f565b80621d356714610184578062923f9e146101ad57806301ffc9a7146101ea57806306ddfe551461022757806306fdde0314610264578063081812fc1461028f575b600080fd5b34801561019057600080fd5b506101ab60048036038101906101a69190612a67565b610673565b005b3480156101b957600080fd5b506101d460048036038101906101cf9190612afa565b6106fa565b6040516101e19190612fd6565b60405180910390f35b3480156101f657600080fd5b50610211600480360381019061020c91906128e7565b61071a565b60405161021e9190612fd6565b60405180910390f35b34801561023357600080fd5b5061024e60048036038101906102499190612afa565b6107fc565b60405161025b9190612fd6565b60405180910390f35b34801561027057600080fd5b5061027961081c565b604051610286919061302e565b60405180910390f35b34801561029b57600080fd5b506102b660048036038101906102b19190612afa565b6108ae565b6040516102c39190612f46565b60405180910390f35b3480156102d857600080fd5b506102f360048036038101906102ee91906128ab565b610933565b005b34801561030157600080fd5b5061031c60048036038101906103179190612b23565b610a4b565b005b34801561032a57600080fd5b50610345600480360381019061034091906129a3565b610a7a565b005b34801561035357600080fd5b5061036e600480360381019061036991906127a5565b610b90565b005b61038a600480360381019061038591906129fb565b610bf0565b005b34801561039857600080fd5b506103b360048036038101906103ae9190612afa565b610cd0565b6040516103c09190612fd6565b60405180910390f35b3480156103d557600080fd5b506103f060048036038101906103eb91906127a5565b610cfa565b005b3480156103fe57600080fd5b5061041960048036038101906104149190612939565b610d1a565b6040516104269190613328565b60405180910390f35b34801561043b57600080fd5b50610444610d7e565b6040516104519190613013565b60405180910390f35b34801561046657600080fd5b50610481600480360381019061047c9190612afa565b610da4565b60405161048e9190612f46565b60405180910390f35b3480156104a357600080fd5b506104be60048036038101906104b99190612704565b610e56565b6040516104cb9190613328565b60405180910390f35b3480156104e057600080fd5b506104e9610f0e565b005b3480156104f757600080fd5b50610500610f96565b60405161050d9190612f46565b60405180910390f35b34801561052257600080fd5b5061052b610fc0565b604051610538919061302e565b60405180910390f35b34801561054d57600080fd5b506105686004803603810190610563919061297a565b611052565b6040516105759190612ff1565b60405180910390f35b34801561058a57600080fd5b506105a560048036038101906105a0919061286f565b6110f2565b005b3480156105b357600080fd5b506105ce60048036038101906105c991906127f4565b611108565b005b3480156105dc57600080fd5b506105f760048036038101906105f29190612afa565b61116a565b604051610604919061302e565b60405180910390f35b34801561061957600080fd5b50610634600480360381019061062f9190612769565b6112bc565b6040516106419190612fd6565b60405180910390f35b34801561065657600080fd5b50610671600480360381019061066c9190612704565b611350565b005b600860009054906101000a900473ffffffffffffffffffffffffffffffffffffffff1673ffffffffffffffffffffffffffffffffffffffff163373ffffffffffffffffffffffffffffffffffffffff16146106cd57600080fd5b600080828060200190518101906106e4919061272d565b915091506106f28282611448565b505050505050565b600c6020528060005260406000206000915054906101000a900460ff1681565b60007f80ac58cd000000000000000000000000000000000000000000000000000000007bffffffffffffffffffffffffffffffffffffffffffffffffffffffff1916827bffffffffffffffffffffffffffffffffffffffffffffffffffffffff191614806107e557507f5b5e139f000000000000000000000000000000000000000000000000000000007bffffffffffffffffffffffffffffffffffffffffffffffffffffffff1916827bffffffffffffffffffffffffffffffffffffffffffffffffffffffff1916145b806107f557506107f482611622565b5b9050919050565b600d6020528060005260406000206000915054906101000a900460ff1681565b60606000805461082b906135d6565b80601f0160208091040260200160405190810160405280929190818152602001828054610857906135d6565b80156108a45780601f10610879576101008083540402835291602001916108a4565b820191906000526020600020905b81548152906001019060200180831161088757829003601f168201915b5050505050905090565b60006108b98261168c565b6108f8576040517f08c379a00000000000000000000000000000000000000000000000000000000081526004016108ef906131f0565b60405180910390fd5b6004600083815260200190815260200160002060009054906101000a900473ffffffffffffffffffffffffffffffffffffffff169050919050565b600061093e82610da4565b90508073ffffffffffffffffffffffffffffffffffffffff168373ffffffffffffffffffffffffffffffffffffffff1614156109af576040517f08c379a00000000000000000000000000000000000000000000000000000000081526004016109a690613250565b60405180910390fd5b8073ffffffffffffffffffffffffffffffffffffffff166109ce6116f8565b73ffffffffffffffffffffffffffffffffffffffff1614806109fd57506109fc816109f76116f8565b6112bc565b5b610a3c576040517f08c379a0000000000000000000000000000000000000000000000000000000008152600401610a3390613130565b60405180910390fd5b610a468383611700565b505050565b80600d600084815260200190815260200160002060006101000a81548160ff0219169083151502179055505050565b610a826116f8565b73ffffffffffffffffffffffffffffffffffffffff16610aa0610f96565b73ffffffffffffffffffffffffffffffffffffffff1614610af6576040517f08c379a0000000000000000000000000000000000000000000000000000000008152600401610aed90613210565b60405180910390fd5b6000600960008561ffff1661ffff1681526020019081526020016000208054610b1e906135d6565b905014610b60576040517f08c379a0000000000000000000000000000000000000000000000000000000008152600401610b5790613290565b60405180910390fd5b8181600960008661ffff1661ffff1681526020019081526020016000209190610b8a9291906123c4565b50505050565b610ba1610b9b6116f8565b826117b9565b610be0576040517f08c379a0000000000000000000000000000000000000000000000000000000008152600401610bd790613270565b60405180910390fd5b610beb838383611897565b505050565b610bf981611afe565b60003382604051602001610c0e929190612fad565b6040516020818303038152906040529050600860009054906101000a900473ffffffffffffffffffffffffffffffffffffffff1673ffffffffffffffffffffffffffffffffffffffff1663c58031003487878786336000604051806020016040528060008152506040518963ffffffff1660e01b8152600401610c9797969594939291906132b0565b6000604051808303818588803b158015610cb057600080fd5b505af1158015610cc4573d6000803e3d6000fd5b50505050505050505050565b6000600d600083815260200190815260200160002060009054906101000a900460ff169050919050565b610d1583838360405180602001604052806000815250611108565b505050565b6000610d26600a611b51565b6000610d32600a611b67565b9050610d3e3382611448565b610d488184611b75565b610d75600b60009054906101000a900473ffffffffffffffffffffffffffffffffffffffff1660016110f2565b80915050919050565b600860009054906101000a900473ffffffffffffffffffffffffffffffffffffffff1681565b6000806002600084815260200190815260200160002060009054906101000a900473ffffffffffffffffffffffffffffffffffffffff169050600073ffffffffffffffffffffffffffffffffffffffff168173ffffffffffffffffffffffffffffffffffffffff161415610e4d576040517f08c379a0000000000000000000000000000000000000000000000000000000008152600401610e4490613170565b60405180910390fd5b80915050919050565b60008073ffffffffffffffffffffffffffffffffffffffff168273ffffffffffffffffffffffffffffffffffffffff161415610ec7576040517f08c379a0000000000000000000000000000000000000000000000000000000008152600401610ebe90613150565b60405180910390fd5b600360008373ffffffffffffffffffffffffffffffffffffffff1673ffffffffffffffffffffffffffffffffffffffff168152602001908152602001600020549050919050565b610f166116f8565b73ffffffffffffffffffffffffffffffffffffffff16610f34610f96565b73ffffffffffffffffffffffffffffffffffffffff1614610f8a576040517f08c379a0000000000000000000000000000000000000000000000000000000008152600401610f8190613210565b60405180910390fd5b610f946000611be9565b565b6000600760009054906101000a900473ffffffffffffffffffffffffffffffffffffffff16905090565b606060018054610fcf906135d6565b80601f0160208091040260200160405190810160405280929190818152602001828054610ffb906135d6565b80156110485780601f1061101d57610100808354040283529160200191611048565b820191906000526020600020905b81548152906001019060200180831161102b57829003601f168201915b5050505050905090565b60096020528060005260406000206000915090508054611071906135d6565b80601f016020809104026020016040519081016040528092919081815260200182805461109d906135d6565b80156110ea5780601f106110bf576101008083540402835291602001916110ea565b820191906000526020600020905b8154815290600101906020018083116110cd57829003601f168201915b505050505081565b6111046110fd6116f8565b8383611caf565b5050565b6111196111136116f8565b836117b9565b611158576040517f08c379a000000000000000000000000000000000000000000000000000000000815260040161114f90613270565b60405180910390fd5b61116484848484611e1c565b50505050565b60606111758261168c565b6111b4576040517f08c379a00000000000000000000000000000000000000000000000000000000081526004016111ab906131d0565b60405180910390fd5b60006006600084815260200190815260200160002080546111d4906135d6565b80601f0160208091040260200160405190810160405280929190818152602001828054611200906135d6565b801561124d5780601f106112225761010080835404028352916020019161124d565b820191906000526020600020905b81548152906001019060200180831161123057829003601f168201915b50505050509050600061125e611e78565b90506000815114156112745781925050506112b7565b6000825111156112a9578082604051602001611291929190612f22565b604051602081830303815290604052925050506112b7565b6112b284611e8f565b925050505b919050565b6000600560008473ffffffffffffffffffffffffffffffffffffffff1673ffffffffffffffffffffffffffffffffffffffff16815260200190815260200160002060008373ffffffffffffffffffffffffffffffffffffffff1673ffffffffffffffffffffffffffffffffffffffff16815260200190815260200160002060009054906101000a900460ff16905092915050565b6113586116f8565b73ffffffffffffffffffffffffffffffffffffffff16611376610f96565b73ffffffffffffffffffffffffffffffffffffffff16146113cc576040517f08c379a00000000000000000000000000000000000000000000000000000000081526004016113c390613210565b60405180910390fd5b600073ffffffffffffffffffffffffffffffffffffffff168173ffffffffffffffffffffffffffffffffffffffff16141561143c576040517f08c379a000000000000000000000000000000000000000000000000000000000815260040161143390613070565b60405180910390fd5b61144581611be9565b50565b600073ffffffffffffffffffffffffffffffffffffffff168273ffffffffffffffffffffffffffffffffffffffff1614156114b8576040517f08c379a00000000000000000000000000000000000000000000000000000000081526004016114af906131b0565b60405180910390fd5b6114c18161168c565b15611501576040517f08c379a00000000000000000000000000000000000000000000000000000000081526004016114f8906130b0565b60405180910390fd5b61150d60008383611f36565b6001600360008473ffffffffffffffffffffffffffffffffffffffff1673ffffffffffffffffffffffffffffffffffffffff168152602001908152602001600020600082825461155d919061340d565b92505081905550816002600083815260200190815260200160002060006101000a81548173ffffffffffffffffffffffffffffffffffffffff021916908373ffffffffffffffffffffffffffffffffffffffff160217905550808273ffffffffffffffffffffffffffffffffffffffff16600073ffffffffffffffffffffffffffffffffffffffff167fddf252ad1be2c89b69c2b068fc378daa952ba7f163c4a11628f55a4df523b3ef60405160405180910390a461161e60008383611f3b565b5050565b60007f01ffc9a7000000000000000000000000000000000000000000000000000000007bffffffffffffffffffffffffffffffffffffffffffffffffffffffff1916827bffffffffffffffffffffffffffffffffffffffffffffffffffffffff1916149050919050565b60008073ffffffffffffffffffffffffffffffffffffffff166002600084815260200190815260200160002060009054906101000a900473ffffffffffffffffffffffffffffffffffffffff1673ffffffffffffffffffffffffffffffffffffffff1614159050919050565b600033905090565b816004600083815260200190815260200160002060006101000a81548173ffffffffffffffffffffffffffffffffffffffff021916908373ffffffffffffffffffffffffffffffffffffffff160217905550808273ffffffffffffffffffffffffffffffffffffffff1661177383610da4565b73ffffffffffffffffffffffffffffffffffffffff167f8c5be1e5ebec7d5bd14f71427d1e84f3dd0314c0f7b2291e5b200ac8c7c3b92560405160405180910390a45050565b60006117c48261168c565b611803576040517f08c379a00000000000000000000000000000000000000000000000000000000081526004016117fa90613110565b60405180910390fd5b600061180e83610da4565b90508073ffffffffffffffffffffffffffffffffffffffff168473ffffffffffffffffffffffffffffffffffffffff16148061187d57508373ffffffffffffffffffffffffffffffffffffffff16611865846108ae565b73ffffffffffffffffffffffffffffffffffffffff16145b8061188e575061188d81856112bc565b5b91505092915050565b8273ffffffffffffffffffffffffffffffffffffffff166118b782610da4565b73ffffffffffffffffffffffffffffffffffffffff161461190d576040517f08c379a000000000000000000000000000000000000000000000000000000000815260040161190490613090565b60405180910390fd5b600073ffffffffffffffffffffffffffffffffffffffff168273ffffffffffffffffffffffffffffffffffffffff16141561197d576040517f08c379a0000000000000000000000000000000000000000000000000000000008152600401611974906130d0565b60405180910390fd5b611988838383611f36565b611993600082611700565b6001600360008573ffffffffffffffffffffffffffffffffffffffff1673ffffffffffffffffffffffffffffffffffffffff16815260200190815260200160002060008282546119e39190613494565b925050819055506001600360008473ffffffffffffffffffffffffffffffffffffffff1673ffffffffffffffffffffffffffffffffffffffff1681526020019081526020016000206000828254611a3a919061340d565b92505081905550816002600083815260200190815260200160002060006101000a81548173ffffffffffffffffffffffffffffffffffffffff021916908373ffffffffffffffffffffffffffffffffffffffff160217905550808273ffffffffffffffffffffffffffffffffffffffff168473ffffffffffffffffffffffffffffffffffffffff167fddf252ad1be2c89b69c2b068fc378daa952ba7f163c4a11628f55a4df523b3ef60405160405180910390a4611af9838383611f3b565b505050565b611b0781611f40565b6000600660008381526020019081526020016000208054611b27906135d6565b905014611b4e57600660008281526020019081526020016000206000611b4d919061244a565b5b50565b6001816000016000828254019250508190555050565b600081600001549050919050565b611b7e8261168c565b611bbd576040517f08c379a0000000000000000000000000000000000000000000000000000000008152600401611bb490613190565b60405180910390fd5b80600660008481526020019081526020016000209080519060200190611be492919061248a565b505050565b6000600760009054906101000a900473ffffffffffffffffffffffffffffffffffffffff16905081600760006101000a81548173ffffffffffffffffffffffffffffffffffffffff021916908373ffffffffffffffffffffffffffffffffffffffff1602179055508173ffffffffffffffffffffffffffffffffffffffff168173ffffffffffffffffffffffffffffffffffffffff167f8be0079c531659141344cd1fd0a4f28419497f9722a3daafe3b4186f6b6457e060405160405180910390a35050565b8173ffffffffffffffffffffffffffffffffffffffff168373ffffffffffffffffffffffffffffffffffffffff161415611d1e576040517f08c379a0000000000000000000000000000000000000000000000000000000008152600401611d15906130f0565b60405180910390fd5b80600560008573ffffffffffffffffffffffffffffffffffffffff1673ffffffffffffffffffffffffffffffffffffffff16815260200190815260200160002060008473ffffffffffffffffffffffffffffffffffffffff1673ffffffffffffffffffffffffffffffffffffffff16815260200190815260200160002060006101000a81548160ff0219169083151502179055508173ffffffffffffffffffffffffffffffffffffffff168373ffffffffffffffffffffffffffffffffffffffff167f17307eab39ab6107e8899845ad3d59bd9653f200f220920489ca2b5937696c3183604051611e0f9190612fd6565b60405180910390a3505050565b611e27848484611897565b611e338484848461205d565b611e72576040517f08c379a0000000000000000000000000000000000000000000000000000000008152600401611e6990613050565b60405180910390fd5b50505050565b606060405180602001604052806000815250905090565b6060611e9a8261168c565b611ed9576040517f08c379a0000000000000000000000000000000000000000000000000000000008152600401611ed090613230565b60405180910390fd5b6000611ee3611e78565b90506000815111611f035760405180602001604052806000815250611f2e565b80611f0d846121f4565b604051602001611f1e929190612f22565b6040516020818303038152906040525b915050919050565b505050565b505050565b6000611f4b82610da4565b9050611f5981600084611f36565b611f64600083611700565b6001600360008373ffffffffffffffffffffffffffffffffffffffff1673ffffffffffffffffffffffffffffffffffffffff1681526020019081526020016000206000828254611fb49190613494565b925050819055506002600083815260200190815260200160002060006101000a81549073ffffffffffffffffffffffffffffffffffffffff021916905581600073ffffffffffffffffffffffffffffffffffffffff168273ffffffffffffffffffffffffffffffffffffffff167fddf252ad1be2c89b69c2b068fc378daa952ba7f163c4a11628f55a4df523b3ef60405160405180910390a461205981600084611f3b565b5050565b600061207e8473ffffffffffffffffffffffffffffffffffffffff166123a1565b156121e7578373ffffffffffffffffffffffffffffffffffffffff1663150b7a026120a76116f8565b8786866040518563ffffffff1660e01b81526004016120c99493929190612f61565b602060405180830381600087803b1580156120e357600080fd5b505af192505050801561211457506040513d601f19601f820116820180604052508101906121119190612910565b60015b612197573d8060008114612144576040519150601f19603f3d011682016040523d82523d6000602084013e612149565b606091505b5060008151141561218f576040517f08c379a000000000000000000000000000000000000000000000000000000000815260040161218690613050565b60405180910390fd5b805181602001fd5b63150b7a0260e01b7bffffffffffffffffffffffffffffffffffffffffffffffffffffffff1916817bffffffffffffffffffffffffffffffffffffffffffffffffffffffff1916149150506121ec565b600190505b949350505050565b6060600082141561223c576040518060400160405280600181526020017f3000000000000000000000000000000000000000000000000000000000000000815250905061239c565b600082905060005b6000821461226e57808061225790613639565b915050600a826122679190613463565b9150612244565b60008167ffffffffffffffff8111156122b0577f4e487b7100000000000000000000000000000000000000000000000000000000600052604160045260246000fd5b6040519080825280601f01601f1916602001820160405280156122e25781602001600182028036833780820191505090505b5090505b60008514612395576001826122fb9190613494565b9150600a8561230a9190613682565b6030612316919061340d565b60f81b818381518110612352577f4e487b7100000000000000000000000000000000000000000000000000000000600052603260045260246000fd5b60200101907effffffffffffffffffffffffffffffffffffffffffffffffffffffffffffff1916908160001a905350600a8561238e9190613463565b94506122e6565b8093505050505b919050565b6000808273ffffffffffffffffffffffffffffffffffffffff163b119050919050565b8280546123d0906135d6565b90600052602060002090601f0160209004810192826123f25760008555612439565b82601f1061240b57803560ff1916838001178555612439565b82800160010185558215612439579182015b8281111561243857823582559160200191906001019061241d565b5b5090506124469190612510565b5090565b508054612456906135d6565b6000825580601f106124685750612487565b601f0160209004906000526020600020908101906124869190612510565b5b50565b828054612496906135d6565b90600052602060002090601f0160209004810192826124b857600085556124ff565b82601f106124d157805160ff19168380011785556124ff565b828001600101855582156124ff579182015b828111156124fe5782518255916020019190600101906124e3565b5b50905061250c9190612510565b5090565b5b80821115612529576000816000905550600101612511565b5090565b600061254061253b84613368565b613343565b90508281526020810184848401111561255857600080fd5b612563848285613594565b509392505050565b600061257e61257984613399565b613343565b90508281526020810184848401111561259657600080fd5b6125a1848285613594565b509392505050565b6000813590506125b881613cc5565b92915050565b6000815190506125cd81613cdc565b92915050565b6000813590506125e281613cf3565b92915050565b6000813590506125f781613d0a565b92915050565b60008151905061260c81613d0a565b92915050565b60008083601f84011261262457600080fd5b8235905067ffffffffffffffff81111561263d57600080fd5b60208301915083600182028301111561265557600080fd5b9250929050565b600082601f83011261266d57600080fd5b813561267d84826020860161252d565b91505092915050565b600082601f83011261269757600080fd5b81356126a784826020860161256b565b91505092915050565b6000813590506126bf81613d21565b92915050565b6000813590506126d481613d38565b92915050565b6000815190506126e981613d38565b92915050565b6000813590506126fe81613d4f565b92915050565b60006020828403121561271657600080fd5b6000612724848285016125a9565b91505092915050565b6000806040838503121561274057600080fd5b600061274e858286016125be565b925050602061275f858286016126da565b9150509250929050565b6000806040838503121561277c57600080fd5b600061278a858286016125a9565b925050602061279b858286016125a9565b9150509250929050565b6000806000606084860312156127ba57600080fd5b60006127c8868287016125a9565b93505060206127d9868287016125a9565b92505060406127ea868287016126c5565b9150509250925092565b6000806000806080858703121561280a57600080fd5b6000612818878288016125a9565b9450506020612829878288016125a9565b935050604061283a878288016126c5565b925050606085013567ffffffffffffffff81111561285757600080fd5b6128638782880161265c565b91505092959194509250565b6000806040838503121561288257600080fd5b6000612890858286016125a9565b92505060206128a1858286016125d3565b9150509250929050565b600080604083850312156128be57600080fd5b60006128cc858286016125a9565b92505060206128dd858286016126c5565b9150509250929050565b6000602082840312156128f957600080fd5b6000612907848285016125e8565b91505092915050565b60006020828403121561292257600080fd5b6000612930848285016125fd565b91505092915050565b60006020828403121561294b57600080fd5b600082013567ffffffffffffffff81111561296557600080fd5b61297184828501612686565b91505092915050565b60006020828403121561298c57600080fd5b600061299a848285016126b0565b91505092915050565b6000806000604084860312156129b857600080fd5b60006129c6868287016126b0565b935050602084013567ffffffffffffffff8111156129e357600080fd5b6129ef86828701612612565b92509250509250925092565b60008060008060608587031215612a1157600080fd5b6000612a1f878288016126b0565b945050602085013567ffffffffffffffff811115612a3c57600080fd5b612a4887828801612612565b93509350506040612a5b878288016126c5565b91505092959194509250565b60008060008060808587031215612a7d57600080fd5b6000612a8b878288016126b0565b945050602085013567ffffffffffffffff811115612aa857600080fd5b612ab48782880161265c565b9350506040612ac5878288016126ef565b925050606085013567ffffffffffffffff811115612ae257600080fd5b612aee8782880161265c565b91505092959194509250565b600060208284031215612b0c57600080fd5b6000612b1a848285016126c5565b91505092915050565b60008060408385031215612b3657600080fd5b6000612b44858286016126c5565b9250506020612b55858286016125d3565b9150509250929050565b612b68816134da565b82525050565b612b77816134c8565b82525050565b612b86816134ec565b82525050565b6000612b9883856133e0565b9350612ba5838584613594565b612bae8361376f565b840190509392505050565b6000612bc4826133ca565b612bce81856133e0565b9350612bde8185602086016135a3565b612be78161376f565b840191505092915050565b612bfb81613570565b82525050565b6000612c0c826133d5565b612c1681856133f1565b9350612c268185602086016135a3565b612c2f8161376f565b840191505092915050565b6000612c45826133d5565b612c4f8185613402565b9350612c5f8185602086016135a3565b80840191505092915050565b6000612c786032836133f1565b9150612c8382613780565b604082019050919050565b6000612c9b6026836133f1565b9150612ca6826137cf565b604082019050919050565b6000612cbe6025836133f1565b9150612cc98261381e565b604082019050919050565b6000612ce1601c836133f1565b9150612cec8261386d565b602082019050919050565b6000612d046024836133f1565b9150612d0f82613896565b604082019050919050565b6000612d276019836133f1565b9150612d32826138e5565b602082019050919050565b6000612d4a602c836133f1565b9150612d558261390e565b604082019050919050565b6000612d6d6038836133f1565b9150612d788261395d565b604082019050919050565b6000612d90602a836133f1565b9150612d9b826139ac565b604082019050919050565b6000612db36029836133f1565b9150612dbe826139fb565b604082019050919050565b6000612dd6602e836133f1565b9150612de182613a4a565b604082019050919050565b6000612df96020836133f1565b9150612e0482613a99565b602082019050919050565b6000612e1c6031836133f1565b9150612e2782613ac2565b604082019050919050565b6000612e3f602c836133f1565b9150612e4a82613b11565b604082019050919050565b6000612e626020836133f1565b9150612e6d82613b60565b602082019050919050565b6000612e85602f836133f1565b9150612e9082613b89565b604082019050919050565b6000612ea86021836133f1565b9150612eb382613bd8565b604082019050919050565b6000612ecb6031836133f1565b9150612ed682613c27565b604082019050919050565b6000612eee6038836133f1565b9150612ef982613c76565b604082019050919050565b612f0d81613524565b82525050565b612f1c81613552565b82525050565b6000612f2e8285612c3a565b9150612f3a8284612c3a565b91508190509392505050565b6000602082019050612f5b6000830184612b6e565b92915050565b6000608082019050612f766000830187612b6e565b612f836020830186612b6e565b612f906040830185612f13565b8181036060830152612fa28184612bb9565b905095945050505050565b6000604082019050612fc26000830185612b6e565b612fcf6020830184612f13565b9392505050565b6000602082019050612feb6000830184612b7d565b92915050565b6000602082019050818103600083015261300b8184612bb9565b905092915050565b60006020820190506130286000830184612bf2565b92915050565b600060208201905081810360008301526130488184612c01565b905092915050565b6000602082019050818103600083015261306981612c6b565b9050919050565b6000602082019050818103600083015261308981612c8e565b9050919050565b600060208201905081810360008301526130a981612cb1565b9050919050565b600060208201905081810360008301526130c981612cd4565b9050919050565b600060208201905081810360008301526130e981612cf7565b9050919050565b6000602082019050818103600083015261310981612d1a565b9050919050565b6000602082019050818103600083015261312981612d3d565b9050919050565b6000602082019050818103600083015261314981612d60565b9050919050565b6000602082019050818103600083015261316981612d83565b9050919050565b6000602082019050818103600083015261318981612da6565b9050919050565b600060208201905081810360008301526131a981612dc9565b9050919050565b600060208201905081810360008301526131c981612dec565b9050919050565b600060208201905081810360008301526131e981612e0f565b9050919050565b6000602082019050818103600083015261320981612e32565b9050919050565b6000602082019050818103600083015261322981612e55565b9050919050565b6000602082019050818103600083015261324981612e78565b9050919050565b6000602082019050818103600083015261326981612e9b565b9050919050565b6000602082019050818103600083015261328981612ebe565b9050919050565b600060208201905081810360008301526132a981612ee1565b9050919050565b600060c0820190506132c5600083018a612f04565b81810360208301526132d881888a612b8c565b905081810360408301526132ec8187612bb9565b90506132fb6060830186612b5f565b6133086080830185612b6e565b81810360a083015261331a8184612bb9565b905098975050505050505050565b600060208201905061333d6000830184612f13565b92915050565b600061334d61335e565b90506133598282613608565b919050565b6000604051905090565b600067ffffffffffffffff82111561338357613382613740565b5b61338c8261376f565b9050602081019050919050565b600067ffffffffffffffff8211156133b4576133b3613740565b5b6133bd8261376f565b9050602081019050919050565b600081519050919050565b600081519050919050565b600082825260208201905092915050565b600082825260208201905092915050565b600081905092915050565b600061341882613552565b915061342383613552565b9250827fffffffffffffffffffffffffffffffffffffffffffffffffffffffffffffffff03821115613458576134576136b3565b5b828201905092915050565b600061346e82613552565b915061347983613552565b925082613489576134886136e2565b5b828204905092915050565b600061349f82613552565b91506134aa83613552565b9250828210156134bd576134bc6136b3565b5b828203905092915050565b60006134d382613532565b9050919050565b60006134e582613532565b9050919050565b60008115159050919050565b60007fffffffff0000000000000000000000000000000000000000000000000000000082169050919050565b600061ffff82169050919050565b600073ffffffffffffffffffffffffffffffffffffffff82169050919050565b6000819050919050565b600067ffffffffffffffff82169050919050565b600061357b82613582565b9050919050565b600061358d82613532565b9050919050565b82818337600083830152505050565b60005b838110156135c15780820151818401526020810190506135a6565b838111156135d0576000848401525b50505050565b600060028204905060018216806135ee57607f821691505b6020821081141561360257613601613711565b5b50919050565b6136118261376f565b810181811067ffffffffffffffff821117156136305761362f613740565b5b80604052505050565b600061364482613552565b91507fffffffffffffffffffffffffffffffffffffffffffffffffffffffffffffffff821415613677576136766136b3565b5b600182019050919050565b600061368d82613552565b915061369883613552565b9250826136a8576136a76136e2565b5b828206905092915050565b7f4e487b7100000000000000000000000000000000000000000000000000000000600052601160045260246000fd5b7f4e487b7100000000000000000000000000000000000000000000000000000000600052601260045260246000fd5b7f4e487b7100000000000000000000000000000000000000000000000000000000600052602260045260246000fd5b7f4e487b7100000000000000000000000000000000000000000000000000000000600052604160045260246000fd5b6000601f19601f8301169050919050565b7f4552433732313a207472616e7366657220746f206e6f6e20455243373231526560008201527f63656976657220696d706c656d656e7465720000000000000000000000000000602082015250565b7f4f776e61626c653a206e6577206f776e657220697320746865207a65726f206160008201527f6464726573730000000000000000000000000000000000000000000000000000602082015250565b7f4552433732313a207472616e736665722066726f6d20696e636f72726563742060008201527f6f776e6572000000000000000000000000000000000000000000000000000000602082015250565b7f4552433732313a20746f6b656e20616c7265616479206d696e74656400000000600082015250565b7f4552433732313a207472616e7366657220746f20746865207a65726f2061646460008201527f7265737300000000000000000000000000000000000000000000000000000000602082015250565b7f4552433732313a20617070726f766520746f2063616c6c657200000000000000600082015250565b7f4552433732313a206f70657261746f7220717565727920666f72206e6f6e657860008201527f697374656e7420746f6b656e0000000000000000000000000000000000000000602082015250565b7f4552433732313a20617070726f76652063616c6c6572206973206e6f74206f7760008201527f6e6572206e6f7220617070726f76656420666f7220616c6c0000000000000000602082015250565b7f4552433732313a2062616c616e636520717565727920666f7220746865207a6560008201527f726f206164647265737300000000000000000000000000000000000000000000602082015250565b7f4552433732313a206f776e657220717565727920666f72206e6f6e657869737460008201527f656e7420746f6b656e0000000000000000000000000000000000000000000000602082015250565b7f45524337323155524953746f726167653a2055524920736574206f66206e6f6e60008201527f6578697374656e7420746f6b656e000000000000000000000000000000000000602082015250565b7f4552433732313a206d696e7420746f20746865207a65726f2061646472657373600082015250565b7f45524337323155524953746f726167653a2055524920717565727920666f722060008201527f6e6f6e6578697374656e7420746f6b656e000000000000000000000000000000602082015250565b7f4552433732313a20617070726f76656420717565727920666f72206e6f6e657860008201527f697374656e7420746f6b656e0000000000000000000000000000000000000000602082015250565b7f4f776e61626c653a2063616c6c6572206973206e6f7420746865206f776e6572600082015250565b7f4552433732314d657461646174613a2055524920717565727920666f72206e6f60008201527f6e6578697374656e7420746f6b656e0000000000000000000000000000000000602082015250565b7f4552433732313a20617070726f76616c20746f2063757272656e74206f776e6560008201527f7200000000000000000000000000000000000000000000000000000000000000602082015250565b7f4552433732313a207472616e736665722063616c6c6572206973206e6f74206f60008201527f776e6572206e6f7220617070726f766564000000000000000000000000000000602082015250565b7f5468652072656d6f746520616464726573732068617320616c7265616479206260008201527f65656e2073657420666f722074686520636861696e4964210000000000000000602082015250565b613cce816134c8565b8114613cd957600080fd5b50565b613ce5816134da565b8114613cf057600080fd5b50565b613cfc816134ec565b8114613d0757600080fd5b50565b613d13816134f8565b8114613d1e57600080fd5b50565b613d2a81613524565b8114613d3557600080fd5b50565b613d4181613552565b8114613d4c57600080fd5b50565b613d588161355c565b8114613d6357600080fd5b5056fea2646970667358221220c814079c39dac143a09eea0b799e0583b7c3471ccc4408983dfa706e224e7a8564736f6c63430008040033",
  "linkReferences": {},
  "deployedLinkReferences": {}
}