{
  "_format": "hh-sol-artifact-1",
  "contractName": "NFT",
  "sourceName": "contracts/NFT.sol",
  "abi": [
    {
      "inputs": [
        {
          "internalType": "string",
          "name": "name_",
          "type": "string"
        },
        {
          "internalType": "string",
          "name": "symbol_",
          "type": "string"
        },
        {
          "internalType": "address",
          "name": "_layerZeroEndpoint",
          "type": "address"
        },
        {
          "internalType": "address",
          "name": "marketPlaceAddress",
          "type": "address"
        }
      ],
      "stateMutability": "nonpayable",
      "type": "constructor"
    },
    {
      "anonymous": false,
      "inputs": [
        {
          "indexed": true,
          "internalType": "address",
          "name": "owner",
          "type": "address"
        },
        {
          "indexed": true,
          "internalType": "address",
          "name": "approved",
          "type": "address"
        },
        {
          "indexed": true,
          "internalType": "uint256",
          "name": "tokenId",
          "type": "uint256"
        }
      ],
      "name": "Approval",
      "type": "event"
    },
    {
      "anonymous": false,
      "inputs": [
        {
          "indexed": true,
          "internalType": "address",
          "name": "owner",
          "type": "address"
        },
        {
          "indexed": true,
          "internalType": "address",
          "name": "operator",
          "type": "address"
        },
        {
          "indexed": false,
          "internalType": "bool",
          "name": "approved",
          "type": "bool"
        }
      ],
      "name": "ApprovalForAll",
      "type": "event"
    },
    {
      "anonymous": false,
      "inputs": [
        {
          "indexed": true,
          "internalType": "address",
          "name": "previousOwner",
          "type": "address"
        },
        {
          "indexed": true,
          "internalType": "address",
          "name": "newOwner",
          "type": "address"
        }
      ],
      "name": "OwnershipTransferred",
      "type": "event"
    },
    {
      "anonymous": false,
      "inputs": [
        {
          "indexed": true,
          "internalType": "address",
          "name": "from",
          "type": "address"
        },
        {
          "indexed": true,
          "internalType": "address",
          "name": "to",
          "type": "address"
        },
        {
          "indexed": true,
          "internalType": "uint256",
          "name": "tokenId",
          "type": "uint256"
        }
      ],
      "name": "Transfer",
      "type": "event"
    },
    {
      "inputs": [
        {
          "internalType": "address",
          "name": "to",
          "type": "address"
        },
        {
          "internalType": "uint256",
          "name": "tokenId",
          "type": "uint256"
        }
      ],
      "name": "approve",
      "outputs": [],
      "stateMutability": "nonpayable",
      "type": "function"
    },
    {
      "inputs": [
        {
          "internalType": "address",
          "name": "owner",
          "type": "address"
        }
      ],
      "name": "balanceOf",
      "outputs": [
        {
          "internalType": "uint256",
          "name": "",
          "type": "uint256"
        }
      ],
      "stateMutability": "view",
      "type": "function"
    },
    {
      "inputs": [
        {
          "internalType": "string",
          "name": "tokenURI",
          "type": "string"
        }
      ],
      "name": "createToken",
      "outputs": [
        {
          "internalType": "uint256",
          "name": "",
          "type": "uint256"
        }
      ],
      "stateMutability": "nonpayable",
      "type": "function"
    },
    {
      "inputs": [],
      "name": "endpoint",
      "outputs": [
        {
          "internalType": "contract ILayerZeroEndpoint",
          "name": "",
          "type": "address"
        }
      ],
      "stateMutability": "view",
      "type": "function"
    },
    {
      "inputs": [
        {
          "internalType": "uint256",
          "name": "tokenId",
          "type": "uint256"
        }
      ],
      "name": "getApproved",
      "outputs": [
        {
          "internalType": "address",
          "name": "",
          "type": "address"
        }
      ],
      "stateMutability": "view",
      "type": "function"
    },
    {
      "inputs": [
        {
          "internalType": "address",
          "name": "owner",
          "type": "address"
        },
        {
          "internalType": "address",
          "name": "operator",
          "type": "address"
        }
      ],
      "name": "isApprovedForAll",
      "outputs": [
        {
          "internalType": "bool",
          "name": "",
          "type": "bool"
        }
      ],
      "stateMutability": "view",
      "type": "function"
    },
    {
      "inputs": [
        {
          "internalType": "uint16",
          "name": "_srcChainId",
          "type": "uint16"
        },
        {
          "internalType": "bytes",
          "name": "_srcAddress",
          "type": "bytes"
        },
        {
          "internalType": "uint64",
          "name": "",
          "type": "uint64"
        },
        {
          "internalType": "bytes",
          "name": "_payload",
          "type": "bytes"
        }
      ],
      "name": "lzReceive",
      "outputs": [],
      "stateMutability": "nonpayable",
      "type": "function"
    },
    {
      "inputs": [],
      "name": "name",
      "outputs": [
        {
          "internalType": "string",
          "name": "",
          "type": "string"
        }
      ],
      "stateMutability": "view",
      "type": "function"
    },
    {
      "inputs": [],
      "name": "owner",
      "outputs": [
        {
          "internalType": "address",
          "name": "",
          "type": "address"
        }
      ],
      "stateMutability": "view",
      "type": "function"
    },
    {
      "inputs": [
        {
          "internalType": "uint256",
          "name": "tokenId",
          "type": "uint256"
        }
      ],
      "name": "ownerOf",
      "outputs": [
        {
          "internalType": "address",
          "name": "",
          "type": "address"
        }
      ],
      "stateMutability": "view",
      "type": "function"
    },
    {
      "inputs": [
        {
          "internalType": "uint16",
          "name": "",
          "type": "uint16"
        }
      ],
      "name": "remotes",
      "outputs": [
        {
          "internalType": "bytes",
          "name": "",
          "type": "bytes"
        }
      ],
      "stateMutability": "view",
      "type": "function"
    },
    {
      "inputs": [],
      "name": "renounceOwnership",
      "outputs": [],
      "stateMutability": "nonpayable",
      "type": "function"
    },
    {
      "inputs": [
        {
          "internalType": "address",
          "name": "from",
          "type": "address"
        },
        {
          "internalType": "address",
          "name": "to",
          "type": "address"
        },
        {
          "internalType": "uint256",
          "name": "tokenId",
          "type": "uint256"
        }
      ],
      "name": "safeTransferFrom",
      "outputs": [],
      "stateMutability": "nonpayable",
      "type": "function"
    },
    {
      "inputs": [
        {
          "internalType": "address",
          "name": "from",
          "type": "address"
        },
        {
          "internalType": "address",
          "name": "to",
          "type": "address"
        },
        {
          "internalType": "uint256",
          "name": "tokenId",
          "type": "uint256"
        },
        {
          "internalType": "bytes",
          "name": "_data",
          "type": "bytes"
        }
      ],
      "name": "safeTransferFrom",
      "outputs": [],
      "stateMutability": "nonpayable",
      "type": "function"
    },
    {
      "inputs": [
        {
          "internalType": "uint16",
          "name": "_chainId",
          "type": "uint16"
        },
        {
          "internalType": "bytes",
          "name": "_dstOmniChainTokenAddr",
          "type": "bytes"
        },
        {
          "internalType": "uint256",
          "name": "_tokenId",
          "type": "uint256"
        }
      ],
      "name": "sendTokens",
      "outputs": [],
      "stateMutability": "payable",
      "type": "function"
    },
    {
      "inputs": [
        {
          "internalType": "address",
          "name": "operator",
          "type": "address"
        },
        {
          "internalType": "bool",
          "name": "approved",
          "type": "bool"
        }
      ],
      "name": "setApprovalForAll",
      "outputs": [],
      "stateMutability": "nonpayable",
      "type": "function"
    },
    {
      "inputs": [
        {
          "internalType": "uint16",
          "name": "_chainId",
          "type": "uint16"
        },
        {
          "internalType": "bytes",
          "name": "_remoteAddress",
          "type": "bytes"
        }
      ],
      "name": "setRemote",
      "outputs": [],
      "stateMutability": "nonpayable",
      "type": "function"
    },
    {
      "inputs": [
        {
          "internalType": "bytes4",
          "name": "interfaceId",
          "type": "bytes4"
        }
      ],
      "name": "supportsInterface",
      "outputs": [
        {
          "internalType": "bool",
          "name": "",
          "type": "bool"
        }
      ],
      "stateMutability": "view",
      "type": "function"
    },
    {
      "inputs": [],
      "name": "symbol",
      "outputs": [
        {
          "internalType": "string",
          "name": "",
          "type": "string"
        }
      ],
      "stateMutability": "view",
      "type": "function"
    },
    {
      "inputs": [
        {
          "internalType": "uint256",
          "name": "tokenId",
          "type": "uint256"
        }
      ],
      "name": "tokenURI",
      "outputs": [
        {
          "internalType": "string",
          "name": "",
          "type": "string"
        }
      ],
      "stateMutability": "view",
      "type": "function"
    },
    {
      "inputs": [
        {
          "internalType": "address",
          "name": "from",
          "type": "address"
        },
        {
          "internalType": "address",
          "name": "to",
          "type": "address"
        },
        {
          "internalType": "uint256",
          "name": "tokenId",
          "type": "uint256"
        }
      ],
      "name": "transferFrom",
      "outputs": [],
      "stateMutability": "nonpayable",
      "type": "function"
    },
    {
      "inputs": [
        {
          "internalType": "address",
          "name": "newOwner",
          "type": "address"
        }
      ],
      "name": "transferOwnership",
      "outputs": [],
      "stateMutability": "nonpayable",
      "type": "function"
    }
  ],
  "bytecode": "0x60806040523480156200001157600080fd5b50604051620041923803806200419283398181016040528101906200003791906200038a565b6040518060400160405280600681526020017f436f6e63657000000000000000000000000000000000000000000000000000008152506040518060400160405280600481526020017f43415354000000000000000000000000000000000000000000000000000000008152508160009080519060200190620000bb92919062000251565b508060019080519060200190620000d492919062000251565b505050620000f7620000eb6200018360201b60201c565b6200018b60201b60201c565b81600860006101000a81548173ffffffffffffffffffffffffffffffffffffffff021916908373ffffffffffffffffffffffffffffffffffffffff16021790555080600b60006101000a81548173ffffffffffffffffffffffffffffffffffffffff021916908373ffffffffffffffffffffffffffffffffffffffff16021790555050505050620005e6565b600033905090565b6000600760009054906101000a900473ffffffffffffffffffffffffffffffffffffffff16905081600760006101000a81548173ffffffffffffffffffffffffffffffffffffffff021916908373ffffffffffffffffffffffffffffffffffffffff1602179055508173ffffffffffffffffffffffffffffffffffffffff168173ffffffffffffffffffffffffffffffffffffffff167f8be0079c531659141344cd1fd0a4f28419497f9722a3daafe3b4186f6b6457e060405160405180910390a35050565b8280546200025f90620004f1565b90600052602060002090601f016020900481019282620002835760008555620002cf565b82601f106200029e57805160ff1916838001178555620002cf565b82800160010185558215620002cf579182015b82811115620002ce578251825591602001919060010190620002b1565b5b509050620002de9190620002e2565b5090565b5b80821115620002fd576000816000905550600101620002e3565b5090565b600062000318620003128462000451565b62000428565b9050828152602081018484840111156200033157600080fd5b6200033e848285620004bb565b509392505050565b6000815190506200035781620005cc565b92915050565b600082601f8301126200036f57600080fd5b81516200038184826020860162000301565b91505092915050565b60008060008060808587031215620003a157600080fd5b600085015167ffffffffffffffff811115620003bc57600080fd5b620003ca878288016200035d565b945050602085015167ffffffffffffffff811115620003e857600080fd5b620003f6878288016200035d565b9350506040620004098782880162000346565b92505060606200041c8782880162000346565b91505092959194509250565b60006200043462000447565b905062000442828262000527565b919050565b6000604051905090565b600067ffffffffffffffff8211156200046f576200046e6200058c565b5b6200047a82620005bb565b9050602081019050919050565b600062000494826200049b565b9050919050565b600073ffffffffffffffffffffffffffffffffffffffff82169050919050565b60005b83811015620004db578082015181840152602081019050620004be565b83811115620004eb576000848401525b50505050565b600060028204905060018216806200050a57607f821691505b602082108114156200052157620005206200055d565b5b50919050565b6200053282620005bb565b810181811067ffffffffffffffff821117156200055457620005536200058c565b5b80604052505050565b7f4e487b7100000000000000000000000000000000000000000000000000000000600052602260045260246000fd5b7f4e487b7100000000000000000000000000000000000000000000000000000000600052604160045260246000fd5b6000601f19601f8301169050919050565b620005d78162000487565b8114620005e357600080fd5b50565b613b9c80620005f66000396000f3fe6080604052600436106101345760003560e01c80636352211e116100ab5780639d1f61131161006f5780639d1f611314610416578063a22cb46514610453578063b88d4fde1461047c578063c87b56dd146104a5578063e985e9c5146104e2578063f2fde38b1461051f57610134565b80636352211e1461032f57806370a082311461036c578063715018a6146103a95780638da5cb5b146103c057806395d89b41146103eb57610134565b806320cdd0a1116100fd57806320cdd0a11461023057806323b872dd1461025957806336da46c91461028257806342842e0e1461029e57806345576f94146102c75780635e280f111461030457610134565b80621d35671461013957806301ffc9a71461016257806306fdde031461019f578063081812fc146101ca578063095ea7b314610207575b600080fd5b34801561014557600080fd5b50610160600480360381019061015b91906128a3565b610548565b005b34801561016e57600080fd5b5061018960048036038101906101849190612723565b6105cf565b6040516101969190612dd6565b60405180910390f35b3480156101ab57600080fd5b506101b46106b1565b6040516101c19190612e2e565b60405180910390f35b3480156101d657600080fd5b506101f160048036038101906101ec9190612936565b610743565b6040516101fe9190612d46565b60405180910390f35b34801561021357600080fd5b5061022e600480360381019061022991906126e7565b6107c8565b005b34801561023c57600080fd5b50610257600480360381019061025291906127df565b6108e0565b005b34801561026557600080fd5b50610280600480360381019061027b91906125e1565b6109f6565b005b61029c60048036038101906102979190612837565b610a56565b005b3480156102aa57600080fd5b506102c560048036038101906102c091906125e1565b610b36565b005b3480156102d357600080fd5b506102ee60048036038101906102e99190612775565b610b56565b6040516102fb9190613128565b60405180910390f35b34801561031057600080fd5b50610319610bba565b6040516103269190612e13565b60405180910390f35b34801561033b57600080fd5b5061035660048036038101906103519190612936565b610be0565b6040516103639190612d46565b60405180910390f35b34801561037857600080fd5b50610393600480360381019061038e9190612540565b610c92565b6040516103a09190613128565b60405180910390f35b3480156103b557600080fd5b506103be610d4a565b005b3480156103cc57600080fd5b506103d5610dd2565b6040516103e29190612d46565b60405180910390f35b3480156103f757600080fd5b50610400610dfc565b60405161040d9190612e2e565b60405180910390f35b34801561042257600080fd5b5061043d600480360381019061043891906127b6565b610e8e565b60405161044a9190612df1565b60405180910390f35b34801561045f57600080fd5b5061047a600480360381019061047591906126ab565b610f2e565b005b34801561048857600080fd5b506104a3600480360381019061049e9190612630565b610f44565b005b3480156104b157600080fd5b506104cc60048036038101906104c79190612936565b610fa6565b6040516104d99190612e2e565b60405180910390f35b3480156104ee57600080fd5b50610509600480360381019061050491906125a5565b6110f8565b6040516105169190612dd6565b60405180910390f35b34801561052b57600080fd5b5061054660048036038101906105419190612540565b61118c565b005b600860009054906101000a900473ffffffffffffffffffffffffffffffffffffffff1673ffffffffffffffffffffffffffffffffffffffff163373ffffffffffffffffffffffffffffffffffffffff16146105a257600080fd5b600080828060200190518101906105b99190612569565b915091506105c78282611284565b505050505050565b60007f80ac58cd000000000000000000000000000000000000000000000000000000007bffffffffffffffffffffffffffffffffffffffffffffffffffffffff1916827bffffffffffffffffffffffffffffffffffffffffffffffffffffffff1916148061069a57507f5b5e139f000000000000000000000000000000000000000000000000000000007bffffffffffffffffffffffffffffffffffffffffffffffffffffffff1916827bffffffffffffffffffffffffffffffffffffffffffffffffffffffff1916145b806106aa57506106a98261145e565b5b9050919050565b6060600080546106c0906133d6565b80601f01602080910402602001604051908101604052809291908181526020018280546106ec906133d6565b80156107395780601f1061070e57610100808354040283529160200191610739565b820191906000526020600020905b81548152906001019060200180831161071c57829003601f168201915b5050505050905090565b600061074e826114c8565b61078d576040517f08c379a000000000000000000000000000000000000000000000000000000000815260040161078490612ff0565b60405180910390fd5b6004600083815260200190815260200160002060009054906101000a900473ffffffffffffffffffffffffffffffffffffffff169050919050565b60006107d382610be0565b90508073ffffffffffffffffffffffffffffffffffffffff168373ffffffffffffffffffffffffffffffffffffffff161415610844576040517f08c379a000000000000000000000000000000000000000000000000000000000815260040161083b90613050565b60405180910390fd5b8073ffffffffffffffffffffffffffffffffffffffff16610863611534565b73ffffffffffffffffffffffffffffffffffffffff16148061089257506108918161088c611534565b6110f8565b5b6108d1576040517f08c379a00000000000000000000000000000000000000000000000000000000081526004016108c890612f30565b60405180910390fd5b6108db838361153c565b505050565b6108e8611534565b73ffffffffffffffffffffffffffffffffffffffff16610906610dd2565b73ffffffffffffffffffffffffffffffffffffffff161461095c576040517f08c379a000000000000000000000000000000000000000000000000000000000815260040161095390613010565b60405180910390fd5b6000600960008561ffff1661ffff1681526020019081526020016000208054610984906133d6565b9050146109c6576040517f08c379a00000000000000000000000000000000000000000000000000000000081526004016109bd90613090565b60405180910390fd5b8181600960008661ffff1661ffff16815260200190815260200160002091906109f0929190612200565b50505050565b610a07610a01611534565b826115f5565b610a46576040517f08c379a0000000000000000000000000000000000000000000000000000000008152600401610a3d90613070565b60405180910390fd5b610a518383836116d3565b505050565b610a5f8161193a565b60003382604051602001610a74929190612dad565b6040516020818303038152906040529050600860009054906101000a900473ffffffffffffffffffffffffffffffffffffffff1673ffffffffffffffffffffffffffffffffffffffff1663c58031003487878786336000604051806020016040528060008152506040518963ffffffff1660e01b8152600401610afd97969594939291906130b0565b6000604051808303818588803b158015610b1657600080fd5b505af1158015610b2a573d6000803e3d6000fd5b50505050505050505050565b610b5183838360405180602001604052806000815250610f44565b505050565b6000610b62600a61198d565b6000610b6e600a6119a3565b9050610b7a3382611284565b610b8481846119b1565b610bb1600b60009054906101000a900473ffffffffffffffffffffffffffffffffffffffff166001610f2e565b80915050919050565b600860009054906101000a900473ffffffffffffffffffffffffffffffffffffffff1681565b6000806002600084815260200190815260200160002060009054906101000a900473ffffffffffffffffffffffffffffffffffffffff169050600073ffffffffffffffffffffffffffffffffffffffff168173ffffffffffffffffffffffffffffffffffffffff161415610c89576040517f08c379a0000000000000000000000000000000000000000000000000000000008152600401610c8090612f70565b60405180910390fd5b80915050919050565b60008073ffffffffffffffffffffffffffffffffffffffff168273ffffffffffffffffffffffffffffffffffffffff161415610d03576040517f08c379a0000000000000000000000000000000000000000000000000000000008152600401610cfa90612f50565b60405180910390fd5b600360008373ffffffffffffffffffffffffffffffffffffffff1673ffffffffffffffffffffffffffffffffffffffff168152602001908152602001600020549050919050565b610d52611534565b73ffffffffffffffffffffffffffffffffffffffff16610d70610dd2565b73ffffffffffffffffffffffffffffffffffffffff1614610dc6576040517f08c379a0000000000000000000000000000000000000000000000000000000008152600401610dbd90613010565b60405180910390fd5b610dd06000611a25565b565b6000600760009054906101000a900473ffffffffffffffffffffffffffffffffffffffff16905090565b606060018054610e0b906133d6565b80601f0160208091040260200160405190810160405280929190818152602001828054610e37906133d6565b8015610e845780601f10610e5957610100808354040283529160200191610e84565b820191906000526020600020905b815481529060010190602001808311610e6757829003601f168201915b5050505050905090565b60096020528060005260406000206000915090508054610ead906133d6565b80601f0160208091040260200160405190810160405280929190818152602001828054610ed9906133d6565b8015610f265780601f10610efb57610100808354040283529160200191610f26565b820191906000526020600020905b815481529060010190602001808311610f0957829003601f168201915b505050505081565b610f40610f39611534565b8383611aeb565b5050565b610f55610f4f611534565b836115f5565b610f94576040517f08c379a0000000000000000000000000000000000000000000000000000000008152600401610f8b90613070565b60405180910390fd5b610fa084848484611c58565b50505050565b6060610fb1826114c8565b610ff0576040517f08c379a0000000000000000000000000000000000000000000000000000000008152600401610fe790612fd0565b60405180910390fd5b6000600660008481526020019081526020016000208054611010906133d6565b80601f016020809104026020016040519081016040528092919081815260200182805461103c906133d6565b80156110895780601f1061105e57610100808354040283529160200191611089565b820191906000526020600020905b81548152906001019060200180831161106c57829003601f168201915b50505050509050600061109a611cb4565b90506000815114156110b05781925050506110f3565b6000825111156110e55780826040516020016110cd929190612d22565b604051602081830303815290604052925050506110f3565b6110ee84611ccb565b925050505b919050565b6000600560008473ffffffffffffffffffffffffffffffffffffffff1673ffffffffffffffffffffffffffffffffffffffff16815260200190815260200160002060008373ffffffffffffffffffffffffffffffffffffffff1673ffffffffffffffffffffffffffffffffffffffff16815260200190815260200160002060009054906101000a900460ff16905092915050565b611194611534565b73ffffffffffffffffffffffffffffffffffffffff166111b2610dd2565b73ffffffffffffffffffffffffffffffffffffffff1614611208576040517f08c379a00000000000000000000000000000000000000000000000000000000081526004016111ff90613010565b60405180910390fd5b600073ffffffffffffffffffffffffffffffffffffffff168173ffffffffffffffffffffffffffffffffffffffff161415611278576040517f08c379a000000000000000000000000000000000000000000000000000000000815260040161126f90612e70565b60405180910390fd5b61128181611a25565b50565b600073ffffffffffffffffffffffffffffffffffffffff168273ffffffffffffffffffffffffffffffffffffffff1614156112f4576040517f08c379a00000000000000000000000000000000000000000000000000000000081526004016112eb90612fb0565b60405180910390fd5b6112fd816114c8565b1561133d576040517f08c379a000000000000000000000000000000000000000000000000000000000815260040161133490612eb0565b60405180910390fd5b61134960008383611d72565b6001600360008473ffffffffffffffffffffffffffffffffffffffff1673ffffffffffffffffffffffffffffffffffffffff1681526020019081526020016000206000828254611399919061320d565b92505081905550816002600083815260200190815260200160002060006101000a81548173ffffffffffffffffffffffffffffffffffffffff021916908373ffffffffffffffffffffffffffffffffffffffff160217905550808273ffffffffffffffffffffffffffffffffffffffff16600073ffffffffffffffffffffffffffffffffffffffff167fddf252ad1be2c89b69c2b068fc378daa952ba7f163c4a11628f55a4df523b3ef60405160405180910390a461145a60008383611d77565b5050565b60007f01ffc9a7000000000000000000000000000000000000000000000000000000007bffffffffffffffffffffffffffffffffffffffffffffffffffffffff1916827bffffffffffffffffffffffffffffffffffffffffffffffffffffffff1916149050919050565b60008073ffffffffffffffffffffffffffffffffffffffff166002600084815260200190815260200160002060009054906101000a900473ffffffffffffffffffffffffffffffffffffffff1673ffffffffffffffffffffffffffffffffffffffff1614159050919050565b600033905090565b816004600083815260200190815260200160002060006101000a81548173ffffffffffffffffffffffffffffffffffffffff021916908373ffffffffffffffffffffffffffffffffffffffff160217905550808273ffffffffffffffffffffffffffffffffffffffff166115af83610be0565b73ffffffffffffffffffffffffffffffffffffffff167f8c5be1e5ebec7d5bd14f71427d1e84f3dd0314c0f7b2291e5b200ac8c7c3b92560405160405180910390a45050565b6000611600826114c8565b61163f576040517f08c379a000000000000000000000000000000000000000000000000000000000815260040161163690612f10565b60405180910390fd5b600061164a83610be0565b90508073ffffffffffffffffffffffffffffffffffffffff168473ffffffffffffffffffffffffffffffffffffffff1614806116b957508373ffffffffffffffffffffffffffffffffffffffff166116a184610743565b73ffffffffffffffffffffffffffffffffffffffff16145b806116ca57506116c981856110f8565b5b91505092915050565b8273ffffffffffffffffffffffffffffffffffffffff166116f382610be0565b73ffffffffffffffffffffffffffffffffffffffff1614611749576040517f08c379a000000000000000000000000000000000000000000000000000000000815260040161174090612e90565b60405180910390fd5b600073ffffffffffffffffffffffffffffffffffffffff168273ffffffffffffffffffffffffffffffffffffffff1614156117b9576040517f08c379a00000000000000000000000000000000000000000000000000000000081526004016117b090612ed0565b60405180910390fd5b6117c4838383611d72565b6117cf60008261153c565b6001600360008573ffffffffffffffffffffffffffffffffffffffff1673ffffffffffffffffffffffffffffffffffffffff168152602001908152602001600020600082825461181f9190613294565b925050819055506001600360008473ffffffffffffffffffffffffffffffffffffffff1673ffffffffffffffffffffffffffffffffffffffff1681526020019081526020016000206000828254611876919061320d565b92505081905550816002600083815260200190815260200160002060006101000a81548173ffffffffffffffffffffffffffffffffffffffff021916908373ffffffffffffffffffffffffffffffffffffffff160217905550808273ffffffffffffffffffffffffffffffffffffffff168473ffffffffffffffffffffffffffffffffffffffff167fddf252ad1be2c89b69c2b068fc378daa952ba7f163c4a11628f55a4df523b3ef60405160405180910390a4611935838383611d77565b505050565b61194381611d7c565b6000600660008381526020019081526020016000208054611963906133d6565b90501461198a576006600082815260200190815260200160002060006119899190612286565b5b50565b6001816000016000828254019250508190555050565b600081600001549050919050565b6119ba826114c8565b6119f9576040517f08c379a00000000000000000000000000000000000000000000000000000000081526004016119f090612f90565b60405180910390fd5b80600660008481526020019081526020016000209080519060200190611a209291906122c6565b505050565b6000600760009054906101000a900473ffffffffffffffffffffffffffffffffffffffff16905081600760006101000a81548173ffffffffffffffffffffffffffffffffffffffff021916908373ffffffffffffffffffffffffffffffffffffffff1602179055508173ffffffffffffffffffffffffffffffffffffffff168173ffffffffffffffffffffffffffffffffffffffff167f8be0079c531659141344cd1fd0a4f28419497f9722a3daafe3b4186f6b6457e060405160405180910390a35050565b8173ffffffffffffffffffffffffffffffffffffffff168373ffffffffffffffffffffffffffffffffffffffff161415611b5a576040517f08c379a0000000000000000000000000000000000000000000000000000000008152600401611b5190612ef0565b60405180910390fd5b80600560008573ffffffffffffffffffffffffffffffffffffffff1673ffffffffffffffffffffffffffffffffffffffff16815260200190815260200160002060008473ffffffffffffffffffffffffffffffffffffffff1673ffffffffffffffffffffffffffffffffffffffff16815260200190815260200160002060006101000a81548160ff0219169083151502179055508173ffffffffffffffffffffffffffffffffffffffff168373ffffffffffffffffffffffffffffffffffffffff167f17307eab39ab6107e8899845ad3d59bd9653f200f220920489ca2b5937696c3183604051611c4b9190612dd6565b60405180910390a3505050565b611c638484846116d3565b611c6f84848484611e99565b611cae576040517f08c379a0000000000000000000000000000000000000000000000000000000008152600401611ca590612e50565b60405180910390fd5b50505050565b606060405180602001604052806000815250905090565b6060611cd6826114c8565b611d15576040517f08c379a0000000000000000000000000000000000000000000000000000000008152600401611d0c90613030565b60405180910390fd5b6000611d1f611cb4565b90506000815111611d3f5760405180602001604052806000815250611d6a565b80611d4984612030565b604051602001611d5a929190612d22565b6040516020818303038152906040525b915050919050565b505050565b505050565b6000611d8782610be0565b9050611d9581600084611d72565b611da060008361153c565b6001600360008373ffffffffffffffffffffffffffffffffffffffff1673ffffffffffffffffffffffffffffffffffffffff1681526020019081526020016000206000828254611df09190613294565b925050819055506002600083815260200190815260200160002060006101000a81549073ffffffffffffffffffffffffffffffffffffffff021916905581600073ffffffffffffffffffffffffffffffffffffffff168273ffffffffffffffffffffffffffffffffffffffff167fddf252ad1be2c89b69c2b068fc378daa952ba7f163c4a11628f55a4df523b3ef60405160405180910390a4611e9581600084611d77565b5050565b6000611eba8473ffffffffffffffffffffffffffffffffffffffff166121dd565b15612023578373ffffffffffffffffffffffffffffffffffffffff1663150b7a02611ee3611534565b8786866040518563ffffffff1660e01b8152600401611f059493929190612d61565b602060405180830381600087803b158015611f1f57600080fd5b505af1925050508015611f5057506040513d601f19601f82011682018060405250810190611f4d919061274c565b60015b611fd3573d8060008114611f80576040519150601f19603f3d011682016040523d82523d6000602084013e611f85565b606091505b50600081511415611fcb576040517f08c379a0000000000000000000000000000000000000000000000000000000008152600401611fc290612e50565b60405180910390fd5b805181602001fd5b63150b7a0260e01b7bffffffffffffffffffffffffffffffffffffffffffffffffffffffff1916817bffffffffffffffffffffffffffffffffffffffffffffffffffffffff191614915050612028565b600190505b949350505050565b60606000821415612078576040518060400160405280600181526020017f300000000000000000000000000000000000000000000000000000000000000081525090506121d8565b600082905060005b600082146120aa57808061209390613439565b915050600a826120a39190613263565b9150612080565b60008167ffffffffffffffff8111156120ec577f4e487b7100000000000000000000000000000000000000000000000000000000600052604160045260246000fd5b6040519080825280601f01601f19166020018201604052801561211e5781602001600182028036833780820191505090505b5090505b600085146121d1576001826121379190613294565b9150600a856121469190613482565b6030612152919061320d565b60f81b81838151811061218e577f4e487b7100000000000000000000000000000000000000000000000000000000600052603260045260246000fd5b60200101907effffffffffffffffffffffffffffffffffffffffffffffffffffffffffffff1916908160001a905350600a856121ca9190613263565b9450612122565b8093505050505b919050565b6000808273ffffffffffffffffffffffffffffffffffffffff163b119050919050565b82805461220c906133d6565b90600052602060002090601f01602090048101928261222e5760008555612275565b82601f1061224757803560ff1916838001178555612275565b82800160010185558215612275579182015b82811115612274578235825591602001919060010190612259565b5b509050612282919061234c565b5090565b508054612292906133d6565b6000825580601f106122a457506122c3565b601f0160209004906000526020600020908101906122c2919061234c565b5b50565b8280546122d2906133d6565b90600052602060002090601f0160209004810192826122f4576000855561233b565b82601f1061230d57805160ff191683800117855561233b565b8280016001018555821561233b579182015b8281111561233a57825182559160200191906001019061231f565b5b509050612348919061234c565b5090565b5b8082111561236557600081600090555060010161234d565b5090565b600061237c61237784613168565b613143565b90508281526020810184848401111561239457600080fd5b61239f848285613394565b509392505050565b60006123ba6123b584613199565b613143565b9050828152602081018484840111156123d257600080fd5b6123dd848285613394565b509392505050565b6000813590506123f481613ac5565b92915050565b60008151905061240981613adc565b92915050565b60008135905061241e81613af3565b92915050565b60008135905061243381613b0a565b92915050565b60008151905061244881613b0a565b92915050565b60008083601f84011261246057600080fd5b8235905067ffffffffffffffff81111561247957600080fd5b60208301915083600182028301111561249157600080fd5b9250929050565b600082601f8301126124a957600080fd5b81356124b9848260208601612369565b91505092915050565b600082601f8301126124d357600080fd5b81356124e38482602086016123a7565b91505092915050565b6000813590506124fb81613b21565b92915050565b60008135905061251081613b38565b92915050565b60008151905061252581613b38565b92915050565b60008135905061253a81613b4f565b92915050565b60006020828403121561255257600080fd5b6000612560848285016123e5565b91505092915050565b6000806040838503121561257c57600080fd5b600061258a858286016123fa565b925050602061259b85828601612516565b9150509250929050565b600080604083850312156125b857600080fd5b60006125c6858286016123e5565b92505060206125d7858286016123e5565b9150509250929050565b6000806000606084860312156125f657600080fd5b6000612604868287016123e5565b9350506020612615868287016123e5565b925050604061262686828701612501565b9150509250925092565b6000806000806080858703121561264657600080fd5b6000612654878288016123e5565b9450506020612665878288016123e5565b935050604061267687828801612501565b925050606085013567ffffffffffffffff81111561269357600080fd5b61269f87828801612498565b91505092959194509250565b600080604083850312156126be57600080fd5b60006126cc858286016123e5565b92505060206126dd8582860161240f565b9150509250929050565b600080604083850312156126fa57600080fd5b6000612708858286016123e5565b925050602061271985828601612501565b9150509250929050565b60006020828403121561273557600080fd5b600061274384828501612424565b91505092915050565b60006020828403121561275e57600080fd5b600061276c84828501612439565b91505092915050565b60006020828403121561278757600080fd5b600082013567ffffffffffffffff8111156127a157600080fd5b6127ad848285016124c2565b91505092915050565b6000602082840312156127c857600080fd5b60006127d6848285016124ec565b91505092915050565b6000806000604084860312156127f457600080fd5b6000612802868287016124ec565b935050602084013567ffffffffffffffff81111561281f57600080fd5b61282b8682870161244e565b92509250509250925092565b6000806000806060858703121561284d57600080fd5b600061285b878288016124ec565b945050602085013567ffffffffffffffff81111561287857600080fd5b6128848782880161244e565b9350935050604061289787828801612501565b91505092959194509250565b600080600080608085870312156128b957600080fd5b60006128c7878288016124ec565b945050602085013567ffffffffffffffff8111156128e457600080fd5b6128f087828801612498565b93505060406129018782880161252b565b925050606085013567ffffffffffffffff81111561291e57600080fd5b61292a87828801612498565b91505092959194509250565b60006020828403121561294857600080fd5b600061295684828501612501565b91505092915050565b612968816132da565b82525050565b612977816132c8565b82525050565b612986816132ec565b82525050565b600061299883856131e0565b93506129a5838584613394565b6129ae8361356f565b840190509392505050565b60006129c4826131ca565b6129ce81856131e0565b93506129de8185602086016133a3565b6129e78161356f565b840191505092915050565b6129fb81613370565b82525050565b6000612a0c826131d5565b612a1681856131f1565b9350612a268185602086016133a3565b612a2f8161356f565b840191505092915050565b6000612a45826131d5565b612a4f8185613202565b9350612a5f8185602086016133a3565b80840191505092915050565b6000612a786032836131f1565b9150612a8382613580565b604082019050919050565b6000612a9b6026836131f1565b9150612aa6826135cf565b604082019050919050565b6000612abe6025836131f1565b9150612ac98261361e565b604082019050919050565b6000612ae1601c836131f1565b9150612aec8261366d565b602082019050919050565b6000612b046024836131f1565b9150612b0f82613696565b604082019050919050565b6000612b276019836131f1565b9150612b32826136e5565b602082019050919050565b6000612b4a602c836131f1565b9150612b558261370e565b604082019050919050565b6000612b6d6038836131f1565b9150612b788261375d565b604082019050919050565b6000612b90602a836131f1565b9150612b9b826137ac565b604082019050919050565b6000612bb36029836131f1565b9150612bbe826137fb565b604082019050919050565b6000612bd6602e836131f1565b9150612be18261384a565b604082019050919050565b6000612bf96020836131f1565b9150612c0482613899565b602082019050919050565b6000612c1c6031836131f1565b9150612c27826138c2565b604082019050919050565b6000612c3f602c836131f1565b9150612c4a82613911565b604082019050919050565b6000612c626020836131f1565b9150612c6d82613960565b602082019050919050565b6000612c85602f836131f1565b9150612c9082613989565b604082019050919050565b6000612ca86021836131f1565b9150612cb3826139d8565b604082019050919050565b6000612ccb6031836131f1565b9150612cd682613a27565b604082019050919050565b6000612cee6038836131f1565b9150612cf982613a76565b604082019050919050565b612d0d81613324565b82525050565b612d1c81613352565b82525050565b6000612d2e8285612a3a565b9150612d3a8284612a3a565b91508190509392505050565b6000602082019050612d5b600083018461296e565b92915050565b6000608082019050612d76600083018761296e565b612d83602083018661296e565b612d906040830185612d13565b8181036060830152612da281846129b9565b905095945050505050565b6000604082019050612dc2600083018561296e565b612dcf6020830184612d13565b9392505050565b6000602082019050612deb600083018461297d565b92915050565b60006020820190508181036000830152612e0b81846129b9565b905092915050565b6000602082019050612e2860008301846129f2565b92915050565b60006020820190508181036000830152612e488184612a01565b905092915050565b60006020820190508181036000830152612e6981612a6b565b9050919050565b60006020820190508181036000830152612e8981612a8e565b9050919050565b60006020820190508181036000830152612ea981612ab1565b9050919050565b60006020820190508181036000830152612ec981612ad4565b9050919050565b60006020820190508181036000830152612ee981612af7565b9050919050565b60006020820190508181036000830152612f0981612b1a565b9050919050565b60006020820190508181036000830152612f2981612b3d565b9050919050565b60006020820190508181036000830152612f4981612b60565b9050919050565b60006020820190508181036000830152612f6981612b83565b9050919050565b60006020820190508181036000830152612f8981612ba6565b9050919050565b60006020820190508181036000830152612fa981612bc9565b9050919050565b60006020820190508181036000830152612fc981612bec565b9050919050565b60006020820190508181036000830152612fe981612c0f565b9050919050565b6000602082019050818103600083015261300981612c32565b9050919050565b6000602082019050818103600083015261302981612c55565b9050919050565b6000602082019050818103600083015261304981612c78565b9050919050565b6000602082019050818103600083015261306981612c9b565b9050919050565b6000602082019050818103600083015261308981612cbe565b9050919050565b600060208201905081810360008301526130a981612ce1565b9050919050565b600060c0820190506130c5600083018a612d04565b81810360208301526130d881888a61298c565b905081810360408301526130ec81876129b9565b90506130fb606083018661295f565b613108608083018561296e565b81810360a083015261311a81846129b9565b905098975050505050505050565b600060208201905061313d6000830184612d13565b92915050565b600061314d61315e565b90506131598282613408565b919050565b6000604051905090565b600067ffffffffffffffff82111561318357613182613540565b5b61318c8261356f565b9050602081019050919050565b600067ffffffffffffffff8211156131b4576131b3613540565b5b6131bd8261356f565b9050602081019050919050565b600081519050919050565b600081519050919050565b600082825260208201905092915050565b600082825260208201905092915050565b600081905092915050565b600061321882613352565b915061322383613352565b9250827fffffffffffffffffffffffffffffffffffffffffffffffffffffffffffffffff03821115613258576132576134b3565b5b828201905092915050565b600061326e82613352565b915061327983613352565b925082613289576132886134e2565b5b828204905092915050565b600061329f82613352565b91506132aa83613352565b9250828210156132bd576132bc6134b3565b5b828203905092915050565b60006132d382613332565b9050919050565b60006132e582613332565b9050919050565b60008115159050919050565b60007fffffffff0000000000000000000000000000000000000000000000000000000082169050919050565b600061ffff82169050919050565b600073ffffffffffffffffffffffffffffffffffffffff82169050919050565b6000819050919050565b600067ffffffffffffffff82169050919050565b600061337b82613382565b9050919050565b600061338d82613332565b9050919050565b82818337600083830152505050565b60005b838110156133c15780820151818401526020810190506133a6565b838111156133d0576000848401525b50505050565b600060028204905060018216806133ee57607f821691505b6020821081141561340257613401613511565b5b50919050565b6134118261356f565b810181811067ffffffffffffffff821117156134305761342f613540565b5b80604052505050565b600061344482613352565b91507fffffffffffffffffffffffffffffffffffffffffffffffffffffffffffffffff821415613477576134766134b3565b5b600182019050919050565b600061348d82613352565b915061349883613352565b9250826134a8576134a76134e2565b5b828206905092915050565b7f4e487b7100000000000000000000000000000000000000000000000000000000600052601160045260246000fd5b7f4e487b7100000000000000000000000000000000000000000000000000000000600052601260045260246000fd5b7f4e487b7100000000000000000000000000000000000000000000000000000000600052602260045260246000fd5b7f4e487b7100000000000000000000000000000000000000000000000000000000600052604160045260246000fd5b6000601f19601f8301169050919050565b7f4552433732313a207472616e7366657220746f206e6f6e20455243373231526560008201527f63656976657220696d706c656d656e7465720000000000000000000000000000602082015250565b7f4f776e61626c653a206e6577206f776e657220697320746865207a65726f206160008201527f6464726573730000000000000000000000000000000000000000000000000000602082015250565b7f4552433732313a207472616e736665722066726f6d20696e636f72726563742060008201527f6f776e6572000000000000000000000000000000000000000000000000000000602082015250565b7f4552433732313a20746f6b656e20616c7265616479206d696e74656400000000600082015250565b7f4552433732313a207472616e7366657220746f20746865207a65726f2061646460008201527f7265737300000000000000000000000000000000000000000000000000000000602082015250565b7f4552433732313a20617070726f766520746f2063616c6c657200000000000000600082015250565b7f4552433732313a206f70657261746f7220717565727920666f72206e6f6e657860008201527f697374656e7420746f6b656e0000000000000000000000000000000000000000602082015250565b7f4552433732313a20617070726f76652063616c6c6572206973206e6f74206f7760008201527f6e6572206e6f7220617070726f76656420666f7220616c6c0000000000000000602082015250565b7f4552433732313a2062616c616e636520717565727920666f7220746865207a6560008201527f726f206164647265737300000000000000000000000000000000000000000000602082015250565b7f4552433732313a206f776e657220717565727920666f72206e6f6e657869737460008201527f656e7420746f6b656e0000000000000000000000000000000000000000000000602082015250565b7f45524337323155524953746f726167653a2055524920736574206f66206e6f6e60008201527f6578697374656e7420746f6b656e000000000000000000000000000000000000602082015250565b7f4552433732313a206d696e7420746f20746865207a65726f2061646472657373600082015250565b7f45524337323155524953746f726167653a2055524920717565727920666f722060008201527f6e6f6e6578697374656e7420746f6b656e000000000000000000000000000000602082015250565b7f4552433732313a20617070726f76656420717565727920666f72206e6f6e657860008201527f697374656e7420746f6b656e0000000000000000000000000000000000000000602082015250565b7f4f776e61626c653a2063616c6c6572206973206e6f7420746865206f776e6572600082015250565b7f4552433732314d657461646174613a2055524920717565727920666f72206e6f60008201527f6e6578697374656e7420746f6b656e0000000000000000000000000000000000602082015250565b7f4552433732313a20617070726f76616c20746f2063757272656e74206f776e6560008201527f7200000000000000000000000000000000000000000000000000000000000000602082015250565b7f4552433732313a207472616e736665722063616c6c6572206973206e6f74206f60008201527f776e6572206e6f7220617070726f766564000000000000000000000000000000602082015250565b7f5468652072656d6f746520616464726573732068617320616c7265616479206260008201527f65656e2073657420666f722074686520636861696e4964210000000000000000602082015250565b613ace816132c8565b8114613ad957600080fd5b50565b613ae5816132da565b8114613af057600080fd5b50565b613afc816132ec565b8114613b0757600080fd5b50565b613b13816132f8565b8114613b1e57600080fd5b50565b613b2a81613324565b8114613b3557600080fd5b50565b613b4181613352565b8114613b4c57600080fd5b50565b613b588161335c565b8114613b6357600080fd5b5056fea2646970667358221220caabaeb1f634fa9431aa2a25f03a07fc061479ae280372322844bf7e0d1983ef64736f6c63430008040033",
  "linkReferences": {},
  "deployedLinkReferences": {}
}